{
  "contractName": "Coin",
  "abi": [
    {
      "constant": true,
      "inputs": [],
      "name": "name",
      "outputs": [
        {
          "name": "",
          "type": "string"
        }
      ],
      "payable": false,
      "stateMutability": "view",
      "type": "function"
    },
    {
      "constant": true,
      "inputs": [],
      "name": "decimals",
      "outputs": [
        {
          "name": "",
          "type": "uint8"
        }
      ],
      "payable": false,
      "stateMutability": "view",
      "type": "function"
    },
    {
      "constant": true,
      "inputs": [
        {
          "name": "",
          "type": "address"
        }
      ],
      "name": "balanceOf",
      "outputs": [
        {
          "name": "",
          "type": "uint256"
        }
      ],
      "payable": false,
      "stateMutability": "view",
      "type": "function"
    },
    {
      "constant": true,
      "inputs": [],
      "name": "symbol",
      "outputs": [
        {
          "name": "",
          "type": "string"
        }
      ],
      "payable": false,
      "stateMutability": "view",
      "type": "function"
    },
    {
      "inputs": [
        {
          "name": "initialSupply",
          "type": "uint256"
        }
      ],
      "payable": false,
      "stateMutability": "nonpayable",
      "type": "constructor"
    }
  ],
  "bytecode": "0x6060604052341561000f57600080fd5b60405160208061056e83398101604052808051906020019091905050806000803373ffffffffffffffffffffffffffffffffffffffff1673ffffffffffffffffffffffffffffffffffffffff168152602001908152602001600020819055506040805190810160405280600881526020017f4e657874436f696e000000000000000000000000000000000000000000000000815250600190805190602001906100b9929190610128565b506040805190810160405280600381526020017f4e5854000000000000000000000000000000000000000000000000000000000081525060029080519060200190610105929190610128565b506002600360006101000a81548160ff021916908360ff160217905550506101cd565b828054600181600116156101000203166002900490600052602060002090601f016020900481019282601f1061016957805160ff1916838001178555610197565b82800160010185558215610197579182015b8281111561019657825182559160200191906001019061017b565b5b5090506101a491906101a8565b5090565b6101ca91905b808211156101c65760008160009055506001016101ae565b5090565b90565b610392806101dc6000396000f300606060405260043610610062576000357c0100000000000000000000000000000000000000000000000000000000900463ffffffff16806306fdde0314610067578063313ce567146100f557806370a082311461012457806395d89b4114610171575b600080fd5b341561007257600080fd5b61007a6101ff565b6040518080602001828103825283818151815260200191508051906020019080838360005b838110156100ba57808201518184015260208101905061009f565b50505050905090810190601f1680156100e75780820380516001836020036101000a031916815260200191505b509250505060405180910390f35b341561010057600080fd5b61010861029d565b604051808260ff1660ff16815260200191505060405180910390f35b341561012f57600080fd5b61015b600480803573ffffffffffffffffffffffffffffffffffffffff169060200190919050506102b0565b6040518082815260200191505060405180910390f35b341561017c57600080fd5b6101846102c8565b6040518080602001828103825283818151815260200191508051906020019080838360005b838110156101c45780820151818401526020810190506101a9565b50505050905090810190601f1680156101f15780820380516001836020036101000a031916815260200191505b509250505060405180910390f35b60018054600181600116156101000203166002900480601f0160208091040260200160405190810160405280929190818152602001828054600181600116156101000203166002900480156102955780601f1061026a57610100808354040283529160200191610295565b820191906000526020600020905b81548152906001019060200180831161027857829003601f168201915b505050505081565b600360009054906101000a900460ff1681565b60006020528060005260406000206000915090505481565b60028054600181600116156101000203166002900480601f01602080910402602001604051908101604052809291908181526020018280546001816001161561010002031660029004801561035e5780601f106103335761010080835404028352916020019161035e565b820191906000526020600020905b81548152906001019060200180831161034157829003601f168201915b5050505050815600a165627a7a7230582071166ea89428ac941b7e5894ced086a3db0e415ca10ee8b9825fcf2a9f6503690029",
  "source": "pragma solidity >=0.4.0;\n\ncontract Coin {\n    mapping (address => uint256) public balanceOf;// This creates an array with all balances\n    string public name;\n    string public symbol;\n    uint8 public decimals;\n\n    function Coin(uint256 initialSupply) public {\n        balanceOf[msg.sender] = initialSupply;              // Give the creator all initial tokens\n        name = \"NextCoin\";\n        symbol = \"NXT\";\n        decimals = 2;\n    }\n}\n",
  "sourcePath": "/home/mads/NextCoin/contracts/Coin.sol",
  "compiler": {
    "name": "solc",
    "version": "0.4.18+commit.9cf6e910.Emscripten.clang"
  },
  "schemaVersion": "1.0.1",
  "updatedAt": "2018-01-08T11:40:01.843Z"
}