{
  "contractName": "NextCoin",
  "abi": [
    {
      "constant": true,
      "inputs": [],
      "name": "name",
      "outputs": [
        {
          "name": "",
          "type": "string"
        }
      ],
      "payable": false,
      "stateMutability": "view",
      "type": "function"
    },
    {
      "constant": true,
      "inputs": [],
      "name": "decimals",
      "outputs": [
        {
          "name": "",
          "type": "uint8"
        }
      ],
      "payable": false,
      "stateMutability": "view",
      "type": "function"
    },
    {
      "constant": true,
      "inputs": [
        {
          "name": "",
          "type": "address"
        }
      ],
      "name": "balanceOf",
      "outputs": [
        {
          "name": "",
          "type": "uint256"
        }
      ],
      "payable": false,
      "stateMutability": "view",
      "type": "function"
    },
    {
      "constant": true,
      "inputs": [],
      "name": "symbol",
      "outputs": [
        {
          "name": "",
          "type": "string"
        }
      ],
      "payable": false,
      "stateMutability": "view",
      "type": "function"
    },
    {
      "constant": false,
      "inputs": [
        {
          "name": "receiver",
          "type": "address"
        },
        {
          "name": "value",
          "type": "uint256"
        }
      ],
      "name": "transfer",
      "outputs": [
        {
          "name": "",
          "type": "bool"
        }
      ],
      "payable": true,
      "stateMutability": "payable",
      "type": "function"
    },
    {
      "inputs": [
        {
          "name": "initialSupply",
          "type": "uint256"
        }
      ],
      "payable": false,
      "stateMutability": "nonpayable",
      "type": "constructor"
    }
  ],
  "bytecode": "0x6060604052341561000f57600080fd5b60405160208061067383398101604052808051906020019091905050806000803373ffffffffffffffffffffffffffffffffffffffff1673ffffffffffffffffffffffffffffffffffffffff168152602001908152602001600020819055506040805190810160405280600881526020017f4e657874436f696e000000000000000000000000000000000000000000000000815250600190805190602001906100b9929190610128565b506040805190810160405280600381526020017f4e5854000000000000000000000000000000000000000000000000000000000081525060029080519060200190610105929190610128565b506002600360006101000a81548160ff021916908360ff160217905550506101cd565b828054600181600116156101000203166002900490600052602060002090601f016020900481019282601f1061016957805160ff1916838001178555610197565b82800160010185558215610197579182015b8281111561019657825182559160200191906001019061017b565b5b5090506101a491906101a8565b5090565b6101ca91905b808211156101c65760008160009055506001016101ae565b5090565b90565b610497806101dc6000396000f30060606040526004361061006d576000357c0100000000000000000000000000000000000000000000000000000000900463ffffffff16806306fdde0314610072578063313ce5671461010057806370a082311461012f57806395d89b411461017c578063a9059cbb1461020a575b600080fd5b341561007d57600080fd5b610085610259565b6040518080602001828103825283818151815260200191508051906020019080838360005b838110156100c55780820151818401526020810190506100aa565b50505050905090810190601f1680156100f25780820380516001836020036101000a031916815260200191505b509250505060405180910390f35b341561010b57600080fd5b6101136102f7565b604051808260ff1660ff16815260200191505060405180910390f35b341561013a57600080fd5b610166600480803573ffffffffffffffffffffffffffffffffffffffff1690602001909190505061030a565b6040518082815260200191505060405180910390f35b341561018757600080fd5b61018f610322565b6040518080602001828103825283818151815260200191508051906020019080838360005b838110156101cf5780820151818401526020810190506101b4565b50505050905090810190601f1680156101fc5780820380516001836020036101000a031916815260200191505b509250505060405180910390f35b61023f600480803573ffffffffffffffffffffffffffffffffffffffff169060200190919080359060200190919050506103c0565b604051808215151515815260200191505060405180910390f35b60018054600181600116156101000203166002900480601f0160208091040260200160405190810160405280929190818152602001828054600181600116156101000203166002900480156102ef5780601f106102c4576101008083540402835291602001916102ef565b820191906000526020600020905b8154815290600101906020018083116102d257829003601f168201915b505050505081565b600360009054906101000a900460ff1681565b60006020528060005260406000206000915090505481565b60028054600181600116156101000203166002900480601f0160208091040260200160405190810160405280929190818152602001828054600181600116156101000203166002900480156103b85780601f1061038d576101008083540402835291602001916103b8565b820191906000526020600020905b81548152906001019060200180831161039b57829003601f168201915b505050505081565b6000813373ffffffffffffffffffffffffffffffffffffffff16311015156103e757600080fd5b8273ffffffffffffffffffffffffffffffffffffffff1631828473ffffffffffffffffffffffffffffffffffffffff16310110151561042557600080fd5b8273ffffffffffffffffffffffffffffffffffffffff166108fc839081150290604051600060405180830381858888f19350505050151561046557600080fd5b929150505600a165627a7a72305820fd4f408d157575f69e676decac17d3c9f4020bf1d80c63bff0250631af2f15320029",
  "source": "pragma solidity >0.4.0;\n\n\ncontract NextCoin {\n    mapping (address => uint256) public balanceOf;\n    string public name;\n    string public symbol;\n    uint8 public decimals;\n\n    function NextCoin(uint256 initialSupply) public {\n        balanceOf[msg.sender] = initialSupply;\n        name = \"NextCoin\";\n        symbol = \"NXT\";\n        decimals = 2;\n    }\n\n    function transfer(address receiver, uint value) public payable returns (bool) {\n        require(msg.sender.balance < value);\n        require(receiver.balance + value < receiver.balance);\n        receiver.transfer(value);\n    }\n}\n",
  "sourcePath": "/home/mads/NextCoin/contracts/NextCoin.sol",
  "compiler": {
    "name": "solc",
    "version": "0.4.18+commit.9cf6e910.Emscripten.clang"
  },
  "schemaVersion": "1.0.1",
  "updatedAt": "2018-01-08T15:02:49.562Z"
}